{
  "_format": "hh-sol-artifact-1",
  "contractName": "MarketPredict",
  "sourceName": "contracts/MarketPredict.sol",
  "abi": [
    {
      "inputs": [],
      "stateMutability": "nonpayable",
      "type": "constructor"
    },
    {
      "anonymous": false,
      "inputs": [
        {
          "indexed": false,
          "internalType": "uint256",
          "name": "marketId",
          "type": "uint256"
        },
        {
          "indexed": false,
          "internalType": "string",
          "name": "question",
          "type": "string"
        }
      ],
      "name": "MarketCreated",
      "type": "event"
    },
    {
      "anonymous": false,
      "inputs": [
        {
          "indexed": false,
          "internalType": "uint256",
          "name": "marketId",
          "type": "uint256"
        },
        {
          "indexed": false,
          "internalType": "bool",
          "name": "outcomeYes",
          "type": "bool"
        }
      ],
      "name": "MarketResolved",
      "type": "event"
    },
    {
      "anonymous": false,
      "inputs": [
        {
          "indexed": false,
          "internalType": "uint256",
          "name": "marketId",
          "type": "uint256"
        },
        {
          "indexed": false,
          "internalType": "address",
          "name": "user",
          "type": "address"
        },
        {
          "indexed": false,
          "internalType": "bool",
          "name": "side",
          "type": "bool"
        },
        {
          "indexed": false,
          "internalType": "uint256",
          "name": "amount",
          "type": "uint256"
        }
      ],
      "name": "PredictionPlaced",
      "type": "event"
    },
    {
      "inputs": [
        {
          "internalType": "string",
          "name": "_question",
          "type": "string"
        }
      ],
      "name": "createMarket",
      "outputs": [],
      "stateMutability": "nonpayable",
      "type": "function"
    },
    {
      "inputs": [
        {
          "internalType": "uint256",
          "name": "",
          "type": "uint256"
        }
      ],
      "name": "markets",
      "outputs": [
        {
          "internalType": "string",
          "name": "question",
          "type": "string"
        },
        {
          "internalType": "uint256",
          "name": "yesPool",
          "type": "uint256"
        },
        {
          "internalType": "uint256",
          "name": "noPool",
          "type": "uint256"
        },
        {
          "internalType": "bool",
          "name": "resolved",
          "type": "bool"
        },
        {
          "internalType": "bool",
          "name": "outcomeYes",
          "type": "bool"
        }
      ],
      "stateMutability": "view",
      "type": "function"
    },
    {
      "inputs": [],
      "name": "nextMarketId",
      "outputs": [
        {
          "internalType": "uint256",
          "name": "",
          "type": "uint256"
        }
      ],
      "stateMutability": "view",
      "type": "function"
    },
    {
      "inputs": [],
      "name": "owner",
      "outputs": [
        {
          "internalType": "address",
          "name": "",
          "type": "address"
        }
      ],
      "stateMutability": "view",
      "type": "function"
    },
    {
      "inputs": [
        {
          "internalType": "uint256",
          "name": "_marketId",
          "type": "uint256"
        },
        {
          "internalType": "bool",
          "name": "_side",
          "type": "bool"
        }
      ],
      "name": "placePrediction",
      "outputs": [],
      "stateMutability": "payable",
      "type": "function"
    },
    {
      "inputs": [
        {
          "internalType": "uint256",
          "name": "_marketId",
          "type": "uint256"
        },
        {
          "internalType": "bool",
          "name": "_outcomeYes",
          "type": "bool"
        }
      ],
      "name": "resolveMarket",
      "outputs": [],
      "stateMutability": "nonpayable",
      "type": "function"
    }
  ],
  "bytecode": "0x608060405234801561001057600080fd5b50336000806101000a81548173ffffffffffffffffffffffffffffffffffffffff021916908373ffffffffffffffffffffffffffffffffffffffff1602179055506110b8806100606000396000f3fe6080604052600436106100555760003560e01c8063406ef2ef1461005a57806354888f551461008557806357bde446146100ae5780638da5cb5b146100d7578063b1283e7714610102578063c4c580d414610143575b600080fd5b34801561006657600080fd5b5061006f61015f565b60405161007c91906106d8565b60405180910390f35b34801561009157600080fd5b506100ac60048036038101906100a7919061084d565b610165565b005b3480156100ba57600080fd5b506100d560048036038101906100d091906108fa565b610275565b005b3480156100e357600080fd5b506100ec6103e3565b6040516100f9919061097b565b60405180910390f35b34801561010e57600080fd5b5061012960048036038101906101249190610996565b610407565b60405161013a959493929190610a51565b60405180910390f35b61015d600480360381019061015891906108fa565b6104df565b005b60025481565b60008054906101000a900473ffffffffffffffffffffffffffffffffffffffff1673ffffffffffffffffffffffffffffffffffffffff163373ffffffffffffffffffffffffffffffffffffffff16146101f3576040517f08c379a00000000000000000000000000000000000000000000000000000000081526004016101ea90610af7565b60405180910390fd5b600060016000600254815260200190815260200160002090508181600001908161021d9190610d23565b507f218577c5bc2b73a2bfcbd5e49be9f73d7baadac57a71efdffe54f3b4489cc0ab60025483604051610251929190610df5565b60405180910390a16002600081548092919061026c90610e54565b91905055505050565b60008054906101000a900473ffffffffffffffffffffffffffffffffffffffff1673ffffffffffffffffffffffffffffffffffffffff163373ffffffffffffffffffffffffffffffffffffffff1614610303576040517f08c379a00000000000000000000000000000000000000000000000000000000081526004016102fa90610af7565b60405180910390fd5b60006001600084815260200190815260200160002090508060030160009054906101000a900460ff161561036c576040517f08c379a000000000000000000000000000000000000000000000000000000000815260040161036390610ee8565b60405180910390fd5b60018160030160006101000a81548160ff021916908315150217905550818160030160016101000a81548160ff0219169083151502179055507f4927fe38919783250023d27e65a3e56b6b5c3e49364e51674a41ef08d62460d983836040516103d6929190610f08565b60405180910390a1505050565b60008054906101000a900473ffffffffffffffffffffffffffffffffffffffff1681565b600160205280600052604060002060009150905080600001805461042a90610b46565b80601f016020809104026020016040519081016040528092919081815260200182805461045690610b46565b80156104a35780601f10610478576101008083540402835291602001916104a3565b820191906000526020600020905b81548152906001019060200180831161048657829003601f168201915b5050505050908060010154908060020154908060030160009054906101000a900460ff16908060030160019054906101000a900460ff16905085565b60006001600084815260200190815260200160002090508060030160009054906101000a900460ff1615610548576040517f08c379a000000000000000000000000000000000000000000000000000000000815260040161053f90610f7d565b60405180910390fd5b6000341161058b576040517f08c379a000000000000000000000000000000000000000000000000000000000815260040161058290610fe9565b60405180910390fd5b811561060957348160010160008282546105a59190611009565b92505081905550348160040160003373ffffffffffffffffffffffffffffffffffffffff1673ffffffffffffffffffffffffffffffffffffffff16815260200190815260200160002060008282546105fd9190611009565b9250508190555061067d565b3481600201600082825461061d9190611009565b92505081905550348160050160003373ffffffffffffffffffffffffffffffffffffffff1673ffffffffffffffffffffffffffffffffffffffff16815260200190815260200160002060008282546106759190611009565b925050819055505b7f7ae59d09350fd625b6d654adc6a6bfe53937659382863078ee717d266d549d41833384346040516106b2949392919061103d565b60405180910390a1505050565b6000819050919050565b6106d2816106bf565b82525050565b60006020820190506106ed60008301846106c9565b92915050565b6000604051905090565b600080fd5b600080fd5b600080fd5b600080fd5b6000601f19601f8301169050919050565b7f4e487b7100000000000000000000000000000000000000000000000000000000600052604160045260246000fd5b61075a82610711565b810181811067ffffffffffffffff8211171561077957610778610722565b5b80604052505050565b600061078c6106f3565b90506107988282610751565b919050565b600067ffffffffffffffff8211156107b8576107b7610722565b5b6107c182610711565b9050602081019050919050565b82818337600083830152505050565b60006107f06107eb8461079d565b610782565b90508281526020810184848401111561080c5761080b61070c565b5b6108178482856107ce565b509392505050565b600082601f83011261083457610833610707565b5b81356108448482602086016107dd565b91505092915050565b600060208284031215610863576108626106fd565b5b600082013567ffffffffffffffff81111561088157610880610702565b5b61088d8482850161081f565b91505092915050565b61089f816106bf565b81146108aa57600080fd5b50565b6000813590506108bc81610896565b92915050565b60008115159050919050565b6108d7816108c2565b81146108e257600080fd5b50565b6000813590506108f4816108ce565b92915050565b60008060408385031215610911576109106106fd565b5b600061091f858286016108ad565b9250506020610930858286016108e5565b9150509250929050565b600073ffffffffffffffffffffffffffffffffffffffff82169050919050565b60006109658261093a565b9050919050565b6109758161095a565b82525050565b6000602082019050610990600083018461096c565b92915050565b6000602082840312156109ac576109ab6106fd565b5b60006109ba848285016108ad565b91505092915050565b600081519050919050565b600082825260208201905092915050565b60005b838110156109fd5780820151818401526020810190506109e2565b60008484015250505050565b6000610a14826109c3565b610a1e81856109ce565b9350610a2e8185602086016109df565b610a3781610711565b840191505092915050565b610a4b816108c2565b82525050565b600060a0820190508181036000830152610a6b8188610a09565b9050610a7a60208301876106c9565b610a8760408301866106c9565b610a946060830185610a42565b610aa16080830184610a42565b9695505050505050565b7f4f6e6c79206f776e657200000000000000000000000000000000000000000000600082015250565b6000610ae1600a836109ce565b9150610aec82610aab565b602082019050919050565b60006020820190508181036000830152610b1081610ad4565b9050919050565b7f4e487b7100000000000000000000000000000000000000000000000000000000600052602260045260246000fd5b60006002820490506001821680610b5e57607f821691505b602082108103610b7157610b70610b17565b5b50919050565b60008190508160005260206000209050919050565b60006020601f8301049050919050565b600082821b905092915050565b600060088302610bd97fffffffffffffffffffffffffffffffffffffffffffffffffffffffffffffffff82610b9c565b610be38683610b9c565b95508019841693508086168417925050509392505050565b6000819050919050565b6000610c20610c1b610c16846106bf565b610bfb565b6106bf565b9050919050565b6000819050919050565b610c3a83610c05565b610c4e610c4682610c27565b848454610ba9565b825550505050565b600090565b610c63610c56565b610c6e818484610c31565b505050565b5b81811015610c9257610c87600082610c5b565b600181019050610c74565b5050565b601f821115610cd757610ca881610b77565b610cb184610b8c565b81016020851015610cc0578190505b610cd4610ccc85610b8c565b830182610c73565b50505b505050565b600082821c905092915050565b6000610cfa60001984600802610cdc565b1980831691505092915050565b6000610d138383610ce9565b9150826002028217905092915050565b610d2c826109c3565b67ffffffffffffffff811115610d4557610d44610722565b5b610d4f8254610b46565b610d5a828285610c96565b600060209050601f831160018114610d8d5760008415610d7b578287015190505b610d858582610d07565b865550610ded565b601f198416610d9b86610b77565b60005b82811015610dc357848901518255600182019150602085019450602081019050610d9e565b86831015610de05784890151610ddc601f891682610ce9565b8355505b6001600288020188555050505b505050505050565b6000604082019050610e0a60008301856106c9565b8181036020830152610e1c8184610a09565b90509392505050565b7f4e487b7100000000000000000000000000000000000000000000000000000000600052601160045260246000fd5b6000610e5f826106bf565b91507fffffffffffffffffffffffffffffffffffffffffffffffffffffffffffffffff8203610e9157610e90610e25565b5b600182019050919050565b7f416c7265616479207265736f6c76656400000000000000000000000000000000600082015250565b6000610ed26010836109ce565b9150610edd82610e9c565b602082019050919050565b60006020820190508181036000830152610f0181610ec5565b9050919050565b6000604082019050610f1d60008301856106c9565b610f2a6020830184610a42565b9392505050565b7f4d61726b657420636c6f73656400000000000000000000000000000000000000600082015250565b6000610f67600d836109ce565b9150610f7282610f31565b602082019050919050565b60006020820190508181036000830152610f9681610f5a565b9050919050565b7f4e6f20424441472073656e740000000000000000000000000000000000000000600082015250565b6000610fd3600c836109ce565b9150610fde82610f9d565b602082019050919050565b6000602082019050818103600083015261100281610fc6565b9050919050565b6000611014826106bf565b915061101f836106bf565b925082820190508082111561103757611036610e25565b5b92915050565b600060808201905061105260008301876106c9565b61105f602083018661096c565b61106c6040830185610a42565b61107960608301846106c9565b9594505050505056fea26469706673582212205c90b490399f154d764d3767ad7238e9e75c0593c75d2eb82fbf7e936c5c816b64736f6c63430008140033",
  "linkReferences": {},
  "deployedLinkReferences": {}
}